:04000000FEEF3FF0E0
:0708000000504152414D0080
:10080800020E3901DF6F010E3C01E66F3A01406BC1
:10081800506B606B426B526BC00EC26E0F0EC36E94
:100828008F0EC46EC00E416F0F0E516F0F0E616FA9
:10083800BA6ABB6A0DEC06F067EC06F03F0EBA6EBA
:10084800030E026EE80E016E4CEC06F0BA6A026AFC
:10085800C80E016E4CEC06F06F00C4FE09F0E00E05
:100868001A6409D0200E096006D0CF0EB16E2B0E87
:10087800B06E010E136E09C01AF01350D8B4ECD73D
:10088800136A0A0E016E5AEC06F00009D8B404D0B7
:100898000AC011F0010E126E162A090E166401D054
:1008A800166A6F002CFF05F00F0E05160F0E051ABD
:1008B800CC500F0B0F0A0A0DF3500524156E3F0E8E
:1008C800156483D1C00EBA16050E166001D0BA8021
:1008D800BB9A176AC1D7BB9AC00EBA161604D8B409
:1008E800BA82106A0F6A126A116A186ACABE04D0FC
:1008F800CAAEFED7010E176ECABCAED7CAACFED7B9
:10090800070E02D1C00EBA16BB8A182A090E18643F
:10091800A3D7186A0F6A126A116A106A020EF4D015
:10092800050E0F6018D0020EBA1A0F50010F056E8F
:10093800600017F0F6FF080EF76E08006F00D4FF8E
:1009480003F0FE0E39EC06F0026A320E016E4CEC32
:1009580006F00F2A81D7050E0F18D8A412D0026A04
:10096800C80E016E4CEC06F00B0E016E5AEC06F048
:100978000009D8B404D00BC011F0010E126E060E97
:100988000F6E500E1118D8A406D0146A126A116A94
:10099800186A040EB9D00F0E106405D0010E146E3B
:1009A800186A030EB1D0060E0F18D8A455D7102A0E
:1009B80053D7BB8AC00EBA16BA80182A130E186409
:1009C8004BD7186ABB9A030E026EE80E016E4CEC08
:1009D80006F07FD7C00EBA16BA8215C003F0A30E70
:1009E80039EC06F0026AC80E016E4CEC06F0126A89
:1009F800116A0C0E016E5AEC06F00009D8B404D046
:100A08000CC011F0010E126E106A050E7DD0C00EDA
:100A1800BA16BA82800E036EFF0E39EC06F0026A2F
:100A2800640E016E4CEC06F0800E036EFF0E39EC7E
:100A380006F0026AC80E016E4CEC06F0116A0D0E43
:100A4800016E5AEC06F00009D8A40DC011F0186A1E
:100A5800060E5AD0C00EBA16BA84182A130E186495
:100A6800FBD6186ABB9A030E026EE80E016E4CECB8
:100A780006F0C00EBA162DD7C00EBA16BB8ABA88B1
:100A8800030E026EE80E016E4CEC06F03D01F78392
:100A9800026A0A0E016E4CEC06F0A00E036ED880B6
:100AA800153439EC06F0026A320E016E4CEC06F091
:100AB800116A126A076A0E6A086A1CD00E0E016E65
:100AC8005AEC06F00009D8B40FD0A00E0E18D8B40E
:100AD8000BD00E28D8B408D00EC011F0010E126E3B
:100AE800082A0850D8A409D0026A010E016E4CECFD
:100AF80006F0072A950E0764E1D7C00EBA16125001
:100B0800D8B404D0BA8A080E176EA6D6BA86070ECD
:100B1800026ED00E016E4CEC06F0BB9A030E026E0C
:100B2800E80E016E4CEC06F0D4D6FE0E036E15509E
:100B3800152439EC06F0010E026E2C0E016E4CECF9
:100B480006F0F30E036E1550152439EC06F0010E6D
:100B5800026E2C0E016E4CEC06F0E60E036E15507C
:100B6800152439EC06F0010E026E2C0E016E4CECC9
:100B780006F0CB0E036E1550152439EC06F0010E65
:100B8800026E2C0E016E4CEC06F0B40E036E15507E
:100B9800152439EC06F0010E026E2C0E016E4CEC99
:100BA80006F0900E036E1550152439EC06F0030E6E
:100BB800026EE80E016E4CEC06F004D7BA80026AA9
:100BC800C80E016E4CEC06F084D61750056E066A06
:100BD8000650000AD8A4F2D70550000AD8B47BD62C
:100BE800010AD8B48FD6030AD8B49AD6010AD8B461
:100BF800E0D6070AD8B4EED6010AD8B408D7030A53
:100C0800D8B428D7010AD8B437D70F0AD8B48DD7A3
:100C1800D5D7380E3D01F26FED6B160EEC6FEF6B0A
:100C2800160EEE6FF66BCB0EF56F640EF46F130EA7
:100C38003A01166F170EE56F800E3D01F36F120033
:100C4800E60EF66E0C0EF76E000EF86E09006F00D9
:100C5800D4FF1AF000EE0FF00B0EEE6AE806FDE185
:100C6800000EF86E000104EF04F0046E3D01F783F6
:100C7800600013F0EAFD60000FF0EAFDF9AFFED75F
:100C8800026A050E016E4CEC06F03D01F783120076
:100C980004D0C80E00D0E82EFDD70106D8A0020661
:100CA8000128F7E10228D8B41200F3D73D01F7B1C3
:100CB80008D00150D96EDA6A6F00A3F7DFFF010E82
:100CC8001200000E1200B26A3901A391CF0EB16E64
:0F0CD8002B0EB06E010EB56E310EB26E1200FF14
:047FFC0024EF06F078
:020000040030CA
:02000000FCFF03
:040004009FFFFFDF7C
:00000001FF
